:1000000053C000006EC000006CC000006AC0000059
:1000100068C0000066C0000064C0000062C000004C
:1000200060C000005EC000005CC000005AC000005C
:1000300058C000004CC2000054C0000052C0000074
:1000400050C000004EC000004CC000004AC000007C
:1000500048C0000046C0000044C0000042C000008C
:1000600040C000003EC000003CC000003AC000009C
:1000700038C0000036C0000034C0000032C00000AC
:1000800030C000002EC000002CC000004501490116
:1000900065018D01790191019501B201B801BD01A0
:1000A000D601E301FC01090211241FBECFEFD0E409
:1000B000DEBFCDBF11E0A0E0B1E0EEE6F6E000E08B
:1000C0000BBF02C007900D92A430B107D9F721E011
:1000D000A4E0B1E001C01D92AF30B207E1F786D2D3
:1000E000C4C28ECFCF93DF93CDB7DEB784E690E066
:1000F00082D088E30DD086E00BD08FE009D081E07C
:1001000007D08AE090E077D00000DF91CF9108958A
:10011000CF93DF931F92CDB7DEB789838BE290E058
:100120002BE230E0F90120812F7BFC01208388E263
:1001300090E02981FC0120838BE290E02BE230E00B
:10014000F90120812068FC01208300008BE290E00F
:100150002BE230E0F90120812F77FC01208382E03F
:1001600090E049D000000F90DF91CF910895CF9398
:10017000DF931F92CDB7DEB789838BE290E02BE24D
:1001800030E0F90120812064FC01208388E290E0C6
:100190002981FC0120838BE290E02BE230E0F90121
:1001A00020812068FC01208300008BE290E02BE29C
:1001B00030E0F90120812F77FC01208381E090E07D
:1001C0001AD000000F90DF91CF910895CF93DF9365
:1001D0001F92CDB7DEB789838981813120F489816F
:1001E000815896DF03C08981815592DF00000F900E
:1001F000DF91CF910895CF93DF9300D000D000D04E
:10020000CDB7DEB79E838D831A82198213C01C82FC
:100210001B8206C000008B819C8101969C838B838E
:100220008B819C8187309340ACF389819A810196C0
:100230009A83898329813A818D819E812817390784
:1002400034F3000026960FB6F894DEBF0FBECDBF84
:10025000DF91CF910895CF93DF93CDB7DEB7809133
:100260000B01882F90E0092E000CAA0BBB0B40E07D
:1002700050E026E030E0841B950B2817390708F47E
:1002800058C08A5B9F4FFC01E7C181E080930A015F
:1002900053C080910E01813021F482E080930A01E5
:1002A0004BC080910E01823021F484E080930A01DA
:1002B00043C080910E01833021F486E080930A01CF
:1002C0003BC081E080930A0137C080910E018130EC
:1002D00021F482E080930A012FC080910E018330C7
:1002E00021F486E080930A0127C083E080930A010D
:1002F00023C080910E01823021F484E080930A01B2
:100300001BC080910E01833021F486E080930A01A6
:1003100013C085E080930A010FC081E080930A0139
:100320000BC081E080930A0107C081E080930A013D
:1003300003C010920A01000080910B01882F90E009
:10034000092E000CAA0BBB0B40E050E026E030E089
:10035000841B950B2817390708F45FC0835B9F4FF8
:10036000FC017AC180E380930D0110920C015BC007
:1003700080910D0180930D0156C080910C018A304F
:1003800079F480910D01893320F480910D018F5F04
:1003900002C080910D0180930D0110920C0143C0A9
:1003A00080910C018F5F80930C013DC080910D0105
:1003B000893320F480910D018F5F02C080910D017F
:1003C00080930D0130C080910C018A3079F48091C6
:1003D0000D01813320F080910D01815002C0809188
:1003E0000D0180930D0110920C011DC080910C0134
:1003F0008F5F80930C0117C080910D01813320F035
:1004000080910D01815002C080910D0180930D01FA
:100410000AC080E380930D0106C087E380930D013D
:1004200010920C01000080910A0180930B018091D1
:100430000D0180638093090181E0C8DE809109018C
:1004400096DE0000DF91CF910895CF93DF93CDB773
:10045000DEB781E890E02BE0FC01208388E890E0A3
:100460002DE730E0FC01318320838FE690E022E02D
:10047000FC01208384E890E0FC01118210828091CD
:10048000000190910101A0910201B09103018093BC
:10049000050190930601A0930701B09308018FE531
:1004A00090E02FE530E0F90120812068FC012083F5
:1004B0000000DF91CF910895CF93DF93CDB7DEB7E2
:1004C00081E0809304010000DF91CF9108951F9295
:1004D0000F9200905F000F92112400905B000F922A
:1004E0002F933F934F935F936F937F938F939F933C
:1004F000AF93BF93EF93FF93CF93DF93CDB7DEB767
:100500008091050190910601A0910701B091080129
:100510000197A109B1098093050190930601A09369
:100520000701B09308018091050190910601A09107
:100530000701B0910801892B8A2B8B2B89F4BCDF32
:100540008091000190910101A0910201B0910301FD
:100550008093050190930601A0930701B0930801D1
:100560000000DF91CF91FF91EF91BF91AF919F91EB
:100570008F917F916F915F914F913F912F910F904C
:1005800000925B000F9000925F000F901F901895F3
:10059000CF93DF9300D000D0CDB7DEB769837A83E5
:1005A0008B839C8389819A81AB81BC81809300017C
:1005B00090930101A0930201B09303018091000187
:1005C00090910101A0910201B09103018093050176
:1005D00090930601A0930701B093080100000F90CB
:1005E0000F900F900F90DF91CF910895CF93DF93ED
:1005F000CDB7DEB781E290E0FC01108282E290E0AC
:100600002FEFFC01208387E290E02FEFFC01208395
:1006100088E290E0FC0110828AE290E02FEFFC017A
:1006200020838BE290E0FC01108264E670E080E0C1
:1006300090E0AEDF0ADF56DD80E290E0FC018081D1
:10064000837080930E0107DE0000809104018823EF
:10065000E1F310920401F0CFEE0FFF1F0024001C05
:0E0660000BBE0790F691E02D0994F894FFCFA1
:04066E000100000087
:00000001FF
