S01C000069676F6E7A3034345F6C616231315F70617274312E7372656312
S113000067C0000082C0000080C000007EC0000005
S11300107CC000007AC0000078C0000076C00000F8
S113002074C0000072C0000070C000006EC0000008
S11300306CC00000C9C1000068C0000066C00000B8
S113004064C0000062C0000060C000005EC0000028
S11300505CC000005AC0000058C0000056C0000038
S113006054C0000052C0000050C000004EC0000048
S11300704CC000004AC0000048C0000046C0000058
S113008044C0000042C0000040C000008E00610176
S11300901B01200125012A012F01340139013E01F0
S11300A0430148014D015201570166015C0176018B
S11300B0A30179017C017F018201850188018B0103
S11300C08E019101940197019A019D01A501A0015E
S11300D011241FBECFEFD0E4DEBFCDBF11E0A0E0FE
S11300E0B1E0EEE9F5E000E00BBF02C007900D922D
S11300F0A430B107D9F721E0A4E0B1E001C01D921A
S1130100A931B207E1F7EAD148C27ACF813191052A
S113011008F0E1C0FC01EA5BFF4F36C28FEE88B9FC
S11301200000309906C082E090E09093160180931D
S11301301501319906C085E090E0909316018093F3
S11301401501329906C088E090E0909316018093DF
S11301501501339906C080E190E0909316018093D5
S113016015018FED88B90000309906C083E090E056
S11301709093160180931501319906C086E090E0B2
S11301809093160180931501329906C089E090E09E
S11301909093160180931501339906C081E090E095
S11301A090931601809315018FEB88B90000309964
S11301B006C084E090E09093160180931501319974
S11301C006C087E090E09093160180931501329960
S11301D006C08AE090E0909316018093150133994C
S11301E006C08FE090E090931601809315018FE78D
S11301F088B90000309906C08BE090E09093160116
S113020080931501319906C08CE090E0909316011B
S113021080931501329906C08DE090E09093160109
S113022080931501339962C08EE090E0909316019B
S1130230809315015BC0109216011092150159C0EC
S1130240109216011092150157C0109216011092C7
S1130250150155C0109216011092150153C0109249
S113026016011092150151C0109216011092150139
S11302704FC010921601109215014DC01092160134
S1130280109215014BC0109216011092150149C02D
S1130290109216011092150147C010921601109287
S11302A0150145C0109216011092150143C0109219
S11302B016011092150141C01092160110921501F9
S11302C03FC010921601109215013DC01092160104
S11302D0109215013AC01092160110921501813145
S11302E09105B0F5FC01E95AFF4F4EC185B185B9BE
S11302F031C081E085B92EC082E085B92BC083E08E
S113030085B928C084E085B925C085E085B922C0B7
S113031086E085B91FC087E085B91CC088E085B92F
S113032019C089E085B916C08AE085B913C08BE08D
S113033085B910C08CE085B90DC08DE085B90AC0BF
S11303408EE085B907C015B805C08FE085B902C035
S11303508BE185B980911501909116010895609300
S11303600001709301018093020190930301609353
S11303700F0170931001809311019093120108955D
S11303808BE0809381008DE790E0909389008093C7
S1130390880082E080936F001092850010928400A0
S11303A08091000190910101A0910201B09103019B
S11303B080930F0190931001A0931101B093120147
S11303C08FB780688FBF08951F920F920FB60F9258
S11303D011248F939F93AF93BF9380910F019091BA
S11303E01001A0911101B09112010197A109B10965
S11303F080930F0190931001A0931101B093120107
S1130400892B8A2B8B2B99F481E0809313018091A3
S1130410000190910101A0910201B0910301809328
S11304200F0190931001A0931101B0931201BF9199
S1130430AF919F918F910F900FBE0F901F901895C1
S11304408FEE88B90000309B29C0319B29C0329BB4
S113045029C0339B29C08FED88B90000309B26C08A
S1130460319B26C0329B26C0339B26C08FEB88B9B4
S11304700000309B23C0319B23C0329B23C0339B9D
S113048023C08FE788B90000309B20C0319B20C077
S1130490329B20C0339B20C080E0089581E30895FF
S11304A084E3089587E308958AE2089582E3089532
S11304B085E3089588E3089580E3089583E3089528
S11304C086E3089589E3089583E2089581E4089515
S11304D082E4089583E4089584E408958FEF84B951
S11304E015B880EF87B98FE088B9E4E0F1E081E0E6
S11304F090E0A0E0B0E081839283A383B4838583FA
S11305009683A783B08786E890E09287818768EE18
S113051073E080E090E023DF33DFC4E0D1E090DFDC
S1130520888312E04D815E816F81788589819A810B
S1130530AB81BC81481759076A077B0760F0888143
S1130540E985FA85082E000C990B099588831D828C
S11305501E821F8218864D815E816F817885898114
S11305609A81AB81BC81840F951FA61FB71F8D8311
S11305709E83AF83B8871150A9F680911301882315
S1130580E1F310921301CBCFEE0FFF1F0024001CE8
S11105900BBE0790F691E02D0994F894FFCF6E
S107059E0100000054
S9030000FC
