S021000069676F6E7A3034345F6C6162395F70617274325F61746D656C2E73726563C3
S113000045C0000060C000005EC000005CC000008D
S11300105AC0000058C0000056C0000054C0000080
S113002052C0000050C000004EC000004CC0000090
S11300304AC00000E8C0000046C0000044C0000000
S113004042C0000040C000003EC000003CC00000B0
S11300503AC0000038C0000036C0000034C00000C0
S113006032C0000030C000002EC000002CC00000D0
S11300702AC0000028C0000026C0000024C00000E0
S113008022C0000020C000001EC0000011241FBEBA
S1130090CFEFD0E4DEBFCDBF11E0A0E0B1E0E8E8EF
S11300A0F7E000E00BBF02C007900D92A432B10745
S11300B0D9F721E0A4E2B1E001C01D92A133B20757
S11300C0E1F7BFD15FC39CCFCF92DF92EF92FF9253
S11300D06B017C019B01AC016091240170912501AD
S11300E08091260190912701D4D1882309F452C02C
S11300F020E030E0A901C701B601CBD1811106C0CF
S1130100E1E9F0E080818870808305C0E1E9F0E0F6
S113011080818360808328E539E344E75FE3C70196
S1130120B601B7D188233CF48FEF9FEF90939900E9
S11301308093980023C020E034E244EF56E4C701E2
S1130140B601B9D218162CF41092990010929800A6
S113015015C020E030E040E053E4C701B601AFD25F
S11301609B01AC0160E074E284EF9AE496D1FDD186
S113017061507109709399006093980010929500F2
S113018010929400C0922401D0922501E09226019D
S1130190F0922701FF90EF90DF90CF90089580E4D4
S11301A0809390008BE08093910060E070E0CB013D
S11301B08BCF0895109290001092910008958BE0D7
S11301C0809381008DE790E090938900809388006C
S11301D082E080936F0010928500109284008091D9
S11301E0200190912101A0912201B09123018093DB
S11301F02B0190932C01A0932D01B0932E018FB766
S113020080688FBF08951F920F920FB60F9211242A
S11302108F939F93AF93BF9380912B0190912C0167
S1130220A0912D01B0912E010197A109B1098093EC
S11302302B0190932C01A0932D01B0932E01892BB7
S11302408A2B8B2B99F481E080932A0180912001E1
S113025090912101A0912201B091230180932B015F
S113026090932C01A0932D01B0932E01BF91AF91D7
S11302709F918F910F900FBE0F901F9018956093D0
S113028020017093210180932201909323016093B4
S11302902B0170932C0180932D0190932E010895CE
S11302A080912F01813041F018F0823059F010C054
S11302B081E080932F010FC000990DC082E08093EC
S11302C02F010CC000990AC081E080932F0103C064
S11302D081E080932F0110922901089581E0809399
S11302E02901089580913001823001F128F4882396
S11302F049F0813059F05BC08430B9F1D8F08530D1
S1130300C1F155C081E0809330015DC001995BC0AB
S113031080912901813009F056C0809128018830EC
S113032008F051C082E08093300187C083E080935D
S11303303001089501990EC080912901813009F09E
S113034075C080912801883008F06DC082E08093E8
S1130350300173C0029974C080912901813009F081
S11303606FC084E0809330014CC085E080933001FD
S1130370089501990EC080912901813009F05BC074
S113038080912801883008F053C082E080933001C6
S113039054C0029908C080912901813021F484E07D
S11303A0809330012EC081E0809330010CC08130F5
S11303B051F028F0823069F0843019F108951092D8
S11303C02801F8CE0895EBDE60E070E0CB017CCE2E
S11303D00895E0912801E83080F4EF5FE09328016C
S11303E0F0E0EE0FFF1FEE0FFF1FE050FF4F6081A4
S11303F071818281938168CE089588E08093280179
S11304000895E0912801E150E0932801F0E0EE0F17
S1130410FF1FEE0FFF1FE050FF4F6081718182814B
S1130420938152CE0895029B9CCF089580B1089584
S1130430029BB5CFB8CF80B1B6CFE0912801CDCF24
S1130440089511B88FEF82B984B915B810922F01AD
S113045081E08093300164EF71E080E090E00FDF91
S1130460AEDE9DDE1DDF3EDFE0912801F0E0EE0F01
S1130470FF1FEE0FFF1FE050FF4F608171818281EB
S1130480938122DE80912A018823E1F310922A01CC
S1130490E9CF9CD008F481E008950CD0D2C0CAD032
S11304A040F0C1D030F021F45F3F19F0B3C05111D6
S11304B0FCC0B6C0D7D098F39923C9F35523B1F340
S11304C0951B550BBB27AA2762177307840738F0BF
S11304D09F5F5F4F220F331F441FAA1FA9F333D01E
S11304E00E2E3AF0E0E830D091505040E695001CD2
S11304F0CAF729D0FE2F27D0660F771F881FBB1F8E
S1130500261737074807AB07B0E809F0BB0B802D67
S1130510BF01FF2793585F4F2AF09E3F510568F0B3
S113052079C0C3C05F3FECF3983EDCF386957795C2
S11305306795B795F7959F5FC9F7880F911D9695B5
S1130540879597F90895E1E0660F771F881FBB1F11
S1130550621773078407BA0720F0621B730B840BBE
S1130560BA0BEE1F88F7E095089504D06894B11192
S11305709CC008957FD088F09F5790F0B92F992799
S1130580B751A0F0D1F0660F771F881F991F1AF09A
S1130590BA95C9F712C0B13081F086D0B1E00895A0
S11305A083C0672F782F8827B85F39F0B93FCCF321
S11305B0869577956795B395D9F73EF49095809590
S11305C0709561957F4F8F4F9F4F0895990F000845
S11305D0550FAA0BE0E8FEEF16161706E807F90711
S11305E0C0F012161306E407F50798F0621B730BAC
S11305F0840B950B39F40A2661F0232B242B252B2D
S113060021F408950A2609F4A140A6958FEF811DCF
S1130610811D089597F99F6780E870E060E0089570
S11306209FEF80EC089500240A9416161706180606
S11306300906089500240A941216130614060506E2
S11306400895092E0394000C11F4882352F0BB0F73
S113065040F4BF2B11F460FF04C06F5F7F4F8F4FD6
S11306609F4F089557FD9058440F551F59F05F3F11
S113067071F04795880F97FB991F61F09F3F79F0C0
S113068087950895121613061406551FF2CF469542
S1130690F1DF08C0161617061806991FF1CF8695C4
S11306A07105610508940895E894BB2766277727A8
S11306B0CB0197F908958ADF08F48FEF08950BD0E2
S11306C0C0CFB1DF28F0B6DF18F0952309F0A2CF30
S11306D0A7CF1124EACFC6DFA0F3959FD1F3950FDE
S11306E050E0551F629FF001729FBB27F00DB11DB2
S11306F0639FAA27F00DB11DAA1F649F6627B00D42
S1130700A11D661F829F2227B00DA11D621F739F2A
S1130710B00DA11D621F839FA00D611D221F749F38
S11307203327A00D611D231F849F600D211D822F7F
S1130730762F6A2F11249F5750408AF0E1F08823C6
S11307404AF0EE0FFF1FBB1F661F771F881F9150D3
S11307505040A9F79E3F510570F05CCFA6CF5F3F94
S1130760ECF3983EDCF3869577956795B795F79506
S1130770E7959F5FC1F7FE2B880F911D969587958E
S10B078097F90895F894FFCFE6
S1130788A4D082437BD49243A4D0A443719DAE43A6
S11307980000C4430000DC43A4F0F64300D0024444
S10707A80100000048
S9030000FC
