S01B000069676F6E7A3034345F6C6162345F70617274322E7372656340
S113000055C0000063C0000061C000005FC0000074
S11300105DC000005BC0000059C0000057C0000074
S113002055C0000053C0000051C000004FC0000084
S11300304DC000004BC0000049C0000047C0000094
S113004045C0000043C0000041C000003FC00000A4
S11300503DC000003BC0000039C0000037C00000B4
S113006035C0000033C0000031C000002FC00000C4
S11300702DC000002BC0000029C0000027C00000D4
S113008025C0000023C0000021C000009E00A50080
S1130090AC0020012701A6012E016A01C701F3016A
S11300A0F301CD01DD01ED01F301F30111241FBEC4
S11300B0CFEFD0E4DEBFCDBF21E0A0E0B1E001C0CE
S11300C01D92A230B207E1F799D1C2C199CFCF9363
S11300D0DF931F92CDB7DEB7898389818F5F8983D0
S11300E089810F90DF91CF910895CF93DF931F9271
S11300F0CDB7DEB7898389818150898389810F9047
S1130100DF91CF9108950F931F93CF93DF93CDB7D2
S1130110DEB78091000190910101CC01A0E0B0E034
S113012040E050E027E030E0841B950B28173907A6
S113013008F413C18A5B9F4FFC0181C181E090E008
S113014090930101809300010EC182E090E09093AE
S113015001018093000107C180E290E0FC018081ED
S1130160882F90E081709927892B89F480E290E0B0
S1130170FC018081882F90E082709927892B39F0C7
S113018083E090E0909301018093000158C080E2E5
S113019090E0FC018081882F90E081709927892B61
S11301A089F080E290E0FC018081882F90E08270E9
S11301B09927892B39F484E090E09093010180938E
S11301C000013DC080E290E0FC018081882F90E036
S11301D081709927892B89F080E290E0FC0180816D
S11301E0882F90E082709927892B39F082E090E083
S11301F0909301018093000122C080E290E0FC0111
S11302008081882F90E081709927892B89F480E27E
S113021090E0FC018081882F90E082709927892BDF
S113022039F485E090E0909301018093000107C0C8
S113023082E090E0909301018093000194C093C008
S113024086E090E090930101809300018CC087E0E8
S113025090E0909301018093000185C080E290E0DA
S1130260FC018081882F90E081709927892B81F48B
S113027080E290E0FC018081882F90E082709927D1
S1130280892B31F485E090E0909301018093000183
S113029080E290E0FC018081882F90E081709927B2
S11302A0892B31F486E090E0909301018093000162
S11302B080E290E0FC018081882F90E08170992792
S11302C0892B09F44FC082E090E090930101809360
S11302D0000148C080E290E0FC018081882F90E01A
S11302E081709927892B89F480E290E0FC01808158
S11302F0882F90E082709927892B39F485E090E06B
S1130300909301018093000121C080E290E0FC0100
S11303108081882F90E082709927892B39F487E0B7
S113032090E0909301018093000110C080E290E07E
S1130330FC018081882F90E082709927892B31F00D
S113034082E090E0909301018093000182E090E0CC
S1130350909301018093000106C010920101109254
S1130360000101C000008091000190910101CC01C5
S1130370A0E0B0E040E050E027E030E0841B950BC3
S11303802817390780F1825B9F4FFC0158C085E232
S113039090E027E0FC0120832BC085E290E0FC0183
S11303A08081893010F505E210E085E290E0FC01DF
S11303B080818DDEF801808318C085E290E0FC0125
S11303C080818823A1F005E210E085E290E0FC0141
S11303D080818BDEF80180830AC085E290E027E00B
S11303E0FC01208305C0000003C0000001C0000020
S11303F00000DF91CF911F910F910895CF93DF9368
S1130400CDB7DEB781E290E0FC01108282E290E099
S11304102FEFFC01208384E290E02FEFFC01208386
S113042085E290E0FC01108285E290E027E0FC0187
S11304302083109201011092000165DEFECFEE0FC1
S1130440FF1F0024001C0BBE0790F691E02D0994B9
S1070450F894FFCF4A
S9030000FC
