S01B000069676F6E7A3034345F6C6162345F70617274322E7372656340
S11300004CC000005AC0000058C0000056C0000098
S113001054C0000052C0000050C000004EC0000098
S11300204CC000004AC0000048C0000046C00000A8
S113003044C0000042C0000040C000003EC00000B8
S11300403CC000003AC0000038C0000036C00000C8
S113005034C0000032C0000030C000002EC00000D8
S11300602CC000002AC0000028C0000026C00000E8
S113007024C0000022C0000020C000001EC00000F8
S11300801CC000001AC0000018C00000B300BA0071
S1130090C1001A0173012202CC0111241FBECFEF4B
S11300A0D0E4DEBFCDBF21E0A0E0B1E001C01D92ED
S11300B0A230B207E1F770D294C2A2CFCF93DF93FC
S11300C01F92CDB7DEB7898389818F5F8983898148
S11300D00F90DF91CF910895CF93DF931F92CDB707
S11300E0DEB7898389818150898389810F90DF916B
S11300F0CF910895CF93DF9300D0CDB7DEB7898336
S11301006A838981882F90E02A81222F30E002C0FF
S1130110959587952A95E2F78170992721E0892B97
S113012009F420E0822F0F900F90DF91CF91089572
S11301300F931F93CF93DF93CDB7DEB78091000168
S113014090910101CC01A0E0B0E040E050E026E055
S113015030E0841B950B2817390708F4CAC18A5B61
S11301609F4FFC0135C281E090E0909301018093A0
S11301700001CAC182E090E09093010180930001E4
S1130180C3C180E290E0FC01808160E0B3DF88239A
S113019069F085E290E0FC0180818A3038F483E0E4
S11301A090E0909301018093000143C080E290E0CD
S11301B0FC01808161E09EDF882359F085E290E0B4
S11301C0FC01808184E090E0909301018093000120
S11301D030C080E290E0FC01808160E08BDF882306
S11301E079F080E290E0FC01808161E083DF882384
S11301F039F085E090E0909301018093000119C0EB
S113020080E290E0FC01808160E074DF882309F0E3
S113021072C180E290E0FC01808161E06BDF8823A1
S113022009F069C182E090E090930101809300019C
S113023062C161C180E290E0FC01808160E05ADF2C
S1130240882369F085E290E0FC0180818A3038F4EB
S113025086E090E0909301018093000143C080E226
S113026090E0FC01808161E045DF882359F085E25C
S113027090E0FC01808184E090E090930101809300
S1130280000130C080E290E0FC01808160E032DF58
S1130290882379F080E290E0FC01808161E02ADF2C
S11302A0882339F085E090E0909301018093000168
S11302B019C080E290E0FC01808160E01BDF8823AC
S11302C009F01BC180E290E0FC01808161E012DF53
S11302D0882309F012C182E090E090930101809399
S11302E000010BC10AC180E290E0FC01808160E062
S11302F001DF882369F085E290E0FC0180818A3087
S113030038F483E090E0909301018093000143C0AE
S113031080E290E0FC01808161E0ECDE882359F00A
S113032085E290E0FC01808186E090E090930101F9
S11303308093000130C080E290E0FC01808160E0A5
S1130340D9DE882379F080E290E0FC01808161E0CD
S1130350D1DE882339F085E090E090930101809309
S1130360000119C080E290E0FC01808160E0C2DEFF
S1130370882309F0C4C080E290E0FC01808161E040
S1130380B9DE882309F0BBC082E090E090930101BC
S113039080930001B4C0B3C080E290E0FC0180818E
S11303A060E0A8DE882361F085E290E0FC018081B2
S11303B08A3030F486E090E090930101809300014C
S11303C080E290E0FC01808161E094DE882351F0BA
S11303D085E290E0FC01808186E090E09093010149
S11303E08093000180E290E0FC01808160E082DE85
S11303F0882379F080E290E0FC01808161E07ADE7C
S1130400882339F085E090E0909301018093000106
S113041078C080E290E0FC01808160E06BDE88239C
S113042009F06FC080E290E0FC01808161E062DE4F
S1130430882309F066C082E090E0909301018093E4
S113044000015FC080E290E0FC01808160E052DE48
S1130450882369F085E290E0FC0180818A3038F4D9
S113046083E090E0909301018093000141C080E219
S113047090E0FC01808161E03DDE882359F085E253
S113048090E0FC01808184E090E0909301018093EE
S113049000012EC080E290E0FC01808160E02ADE51
S11304A0882379F080E290E0FC01808161E022DE23
S11304B0882339F085E090E0909301018093000156
S11304C017C080E290E0FC01808160E013DE8823A5
S11304D0D1F480E290E0FC01808161E00BDE8823AE
S11304E091F482E090E090930101809300010BC0AD
S11304F00AC0000009C0000007C0000005C00000D9
S113050003C0000001C0000080910001909101012E
S113051083309105C1F08430910530F48130910528
S113052061F0029791F132C08530910549F185302F
S1130530910598F00697D9F029C085E290E027E06C
S1130540FC01208323C005E210E085E290E0FC0179
S11305508081B4DDF801808319C005E210E085E2F2
S113056090E0FC018081B8DDF80180830FC085E252
S113057090E025E230E0F9012081FC01208306C0EF
S113058085E290E0FC01108201C000000000DF91D0
S1130590CF911F910F910895CF93DF93CDB7DEB71D
S11305A081E290E0FC01108282E290E02FEFFC01F6
S11305B0208384E290E02FEFFC01208385E290E029
S11305C0FC0110821092010110920001B1DDFECFF6
S11305D0EE0FFF1F0024001C0BBE0790F691E02DC8
S10905E00994F894FFCF1A
S9030000FC
