:1000000045C000004BC0000049C0000047C00000D0
:1000100045C0000043C0000041C000003FC00000D8
:100020003DC000003BC0000039C0000037C00000E8
:1000300035C0000033C0000031C000002FC00000F8
:100040002DC000002BC0000029C0000027C0000008
:1000500025C0000023C0000021C000001FC0000018
:100060001DC000001BC0000019C0000017C0000028
:1000700015C0000013C0000011C000000FC0000038
:100080000DC000000BC0000009C0000011241FBEFD
:10009000CFEFD0E4DEBFCDBF30D0A6C0B1CFCF937D
:1000A000DF9300D01F92CDB7DEB789836A834B837D
:1000B0008B81882371F08A81282F30E081E090E0E5
:1000C00002C0880F991F2A95E2F7982F8981892B02
:1000D0000EC08A81282F30E081E090E002C0880FB6
:1000E000991F2A95E2F7982F9095898189230F907F
:1000F0000F900F90DF91CF9108950F931F93CF939F
:10010000DF931F92CDB7DEB78AE290E0FC01108248
:100110008BE290E02FEFFC01208384E290E02EEF51
:10012000FC01208385E290E021E0FC01208319821C
:1001300089E290E0FC01808189838981880F89832D
:1001400083E290E0FC018081982F91708981892B56
:10015000898389818734B8F005E210E085E290E078
:10016000FC01808141E061E09ADFF801808305E2D3
:1001700010E085E290E0FC01808140E062E08FDFEA
:10018000F8018083D5CF89818630B8F005E210E090
:1001900085E290E0FC01808140E061E080DFF801D1
:1001A000808305E210E085E290E0FC01808141E07F
:1001B00062E075DFF8018083BBCF05E210E085E2E5
:1001C00090E0FC01808140E061E069DFF80180831C
:1001D00005E210E085E290E0FC01808140E062E011
:0C01E0005EDFF8018083A4CFF894FFCF0D
:00000001FF
