:1000000045C0000053C0000051C000004FC00000B8
:100010004DC000004BC0000049C0000047C00000B8
:1000200045C0000043C0000041C000003FC00000C8
:100030003DC000003BC0000039C0000037C00000D8
:1000400035C0000033C0000031C000002FC00000E8
:100050002DC000002BC0000029C0000027C00000F8
:1000600025C0000023C0000021C000001FC0000008
:100070001DC000001BC0000019C0000017C0000018
:1000800015C0000013C0000011C0000011241FBEE5
:10009000CFEFD0E4DEBFCDBF21E0A0E0B1E001C0F2
:1000A0001D92A230B207E1F722D13FC1A9CFCF9371
:1000B000DF9300D01F92CDB7DEB789836A834B836D
:1000C0008B81882371F08A81282F30E081E090E0D5
:1000D00002C0880F991F2A95E2F7982F8981892BF2
:1000E0000EC08A81282F30E081E090E002C0880FA6
:1000F000991F2A95E2F7982F9095898189230F906F
:100100000F900F90DF91CF9108950F931F93CF938E
:10011000DF93CDB7DEB7809100019091010182306D
:10012000910571F18330910528F4009751F0019702
:1001300079F06EC083309105D9F1049709F450C06D
:1001400067C081E090E0909301018093000160C05E
:1001500080E290E0FC018081882F90E081709927F7
:10016000892B39F082E090E09093010180930001A7
:100170004FC081E090E0909301018093000148C05E
:1001800080E290E0FC018081882F90E081709927C7
:10019000892B39F082E090E0909301018093000177
:1001A00037C083E090E0909301018093000130C05C
:1001B00080E290E0FC018081882F90E08170992797
:1001C000892B39F084E090E0909301018093000145
:1001D0001FC083E090E0909301018093000118C05C
:1001E00080E290E0FC018081882F90E08170992767
:1001F000892B39F084E090E0909301018093000115
:1002000006C081E090E0909301018093000100001E
:10021000809100019091010182309105E1F08330DD
:10022000910530F4009709F45BC0019741F059C083
:100230008330910539F1049709F43BC052C005E2BF
:1002400010E085E290E0FC01808141E060E02FDF7A
:10025000F801808346C005E210E085E290E0FC01F1
:10026000808140E060E023DFF801808305E210E058
:1002700085E290E0FC01808141E061E018DFF80157
:1002800080832FC005E210E085E290E0FC018081D0
:1002900040E060E00CDFF801808305E210E085E2D9
:1002A00090E0FC01808141E061E001DFF8018083A2
:1002B00018C005E210E085E290E0FC01808140E09A
:1002C00061E0F5DEF801808305E210E085E290E070
:1002D000FC01808141E060E0EADEF801808301C03A
:1002E00000000000DF91CF911F910F910895CF93EF
:1002F000DF93CDB7DEB781E290E0FC01108282E2AD
:1003000090E02FEFFC01208384E290E02FEFFC01CE
:10031000208385E290E0FC01108281E090E09093E0
:0E032000010180930001F1DEFECFF894FFCFC3
:00000001FF
