S01B000069676F6E7A3034345F6C6162345F70617274312E7372656341
S113000045C0000053C0000051C000004FC00000B4
S11300104DC000004BC0000049C0000047C00000B4
S113002045C0000043C0000041C000003FC00000C4
S11300303DC000003BC0000039C0000037C00000D4
S113004035C0000033C0000031C000002FC00000E4
S11300502DC000002BC0000029C0000027C00000F4
S113006025C0000023C0000021C000001FC0000004
S11300701DC000001BC0000019C0000017C0000014
S113008015C0000013C0000011C0000011241FBEE1
S1130090CFEFD0E4DEBFCDBF21E0A0E0B1E001C0EE
S11300A01D92A230B207E1F738D153C1A9CFCF9343
S11300B0DF9300D01F92CDB7DEB789836A834B8369
S11300C08B81882371F08A81282F30E081E090E0D1
S11300D002C0880F991F2A95E2F7982F8981892BEE
S11300E00EC08A81282F30E081E090E002C0880FA2
S11300F0991F2A95E2F7982F9095898189230F906B
S11301000F900F90DF91CF910895CF93DF9300D09C
S1130110CDB7DEB789836A838981882F90E02A81ED
S1130120222F30E002C0959587952A95E2F78170D9
S1130130992721E0892B09F420E0822F0F900F905A
S1130140DF91CF9108950F931F93CF93DF93CDB792
S1130150DEB780910001909101018230910561F137
S11301608330910528F4009751F0019779F066C027
S113017083309105B9F1049709F44AC05FC081E066
S113018090E0909301018093000158C080E290E0D8
S1130190FC01808160E0B9DF882339F082E090E0DF
S11301A0909301018093000149C081E090E0909315
S11301B001018093000142C080E290E0FC01808153
S11301C060E0A3DF882339F082E090E0909301019E
S11301D08093000133C083E090E090930101809309
S11301E000012CC080E290E0FC01808160E08DDFA2
S11301F0882339F084E090E090930101809300011A
S11302001DC083E090E0909301018093000116C02B
S113021080E290E0FC01808160E077DF882339F0A0
S113022084E090E0909301018093000106C081E096
S113023090E09093010180930001000080910001FF
S11302409091010182309105E1F08330910530F401
S1130250009709F45BC0019741F059C083309105C0
S113026039F1049709F43BC052C005E210E085E27D
S113027090E0FC01808141E060E019DFF8018083B7
S113028046C005E210E085E290E0FC01808140E098
S113029060E00DDFF801808305E210E085E290E084
S11302A0FC01808141E061E002DFF80180832FC01E
S11302B005E210E085E290E0FC01808140E060E02E
S11302C0F6DEF801808305E210E085E290E0FC01AF
S11302D0808141E061E0EBDEF801808318C005E233
S11302E010E085E290E0FC01808140E061E0DFDE27
S11302F0F801808305E210E085E290E0FC01808152
S113030041E060E0D4DEF801808301C00000000019
S1130310DF91CF911F910F910895CF93DF93CDB7C4
S1130320DEB781E290E0FC01108282E290E02FEFE0
S1130330FC01208384E290E02FEFFC01208385E21E
S113034090E0FC0110821092010110920001FBDE8A
S1090350FECFF894FFCF7C
S9030000FC
