S01C000069676F6E7A3034345F6C616231315F70617274332E7372656310
S11300008AC00000A5C00000A3C00000A1C0000079
S11300109FC000009DC000009BC0000099C000006C
S113002097C0000095C0000093C0000091C000007C
S11300308FC00000C3C000008BC0000089C0000056
S113004087C0000085C0000083C0000081C000009C
S11300507FC000007DC000007BC0000079C00000AC
S113006077C0000075C0000073C0000071C00000BC
S11300706FC000006DC000006BC0000069C00000CC
S113008067C0000065C0000063C00000470243026F
S11300904302430243024302430243024302430234
S11300A04302430243024302430243024302430224
S11300B04302430243024302430243024302430214
S11300C04302430243024302430243024302430204
S11300D043023A02430243024302430243024302FD
S11300E02902430243024302430243023202B4019F
S11300F0BD01C601CF01D801E101EA01F301FC0110
S11301004302430243024302430243024302050201
S11301100E021702200211241FBECFEFD0E4DEBF6F
S1130120CDBF11E0A0E0B1E0EAE5F5E000E00BBFEF
S113013002C007900D92A430B107D9F721E0A4E0E2
S1130140B1E001C01D92A531B207E1F7A9D103C204
S113015057CF609300017093010180930201909343
S11301600301609310017093110180931201909325
S1130170130108958BE0809381008DE790E09093C4
S113018089008093880082E080936F00109285003C
S1130190109284008091000190910101A0910201CC
S11301A0B09103018093100190931101A093120167
S11301B0B09313018FB780688FBF08951F920F9279
S11301C00FB60F9211248F939F93AF93BF93809197
S11301D0100190911101A0911201B09113010197A6
S11301E0A109B1098093100190931101A093120108
S11301F0B0931301892B8A2B8B2B99F481E0809384
S113020014018091000190910101A0910201B0912B
S113021003018093100190931101A0931201B093F4
S11302201301BF91AF919F918F910F900FBE0F90CB
S11302301F901895181619065CF0089500002150B7
S11302403109E1F74F5F5F4F8417950719F408955B
S113025040E050E027E033E0F1CF10988BB9119AD9
S11302600000119882E090E0E5CF0895813118F400
S11302708158F3CF08958155F0CF089584E690E036
S1130280D9DF88E3EADF86E0E8DF8FE0E6DF81E0BC
S1130290E4DF8AE090E0CECF0895109A8BB9119AEA
S11302A00000119881E090E0C5CF08958FEE88B9E1
S11302B00000309B29C0319B29C0329B29C0339B4D
S11302C029C08FED88B90000309B26C0319B26C021
S11302D0329B26C0339B26C08FEB88B90000309B2D
S11302E023C0319B23C0329B23C0339B23C08FE7A1
S11302F088B90000309B20C0319B20C0329B20C0B5
S1130300339B20C080E0089581E3089584E3089539
S113031087E308958AE2089582E3089585E30895C2
S113032088E3089580E3089583E3089586E30895B8
S113033089E3089583E2089581E4089582E40895A9
S113034083E4089584E40895CF93DF93EC01AEDF52
S1130350209709F0A1C090E08534910508F093C07E
S1130360FC01EA5BFF4FEEC081E380930F0181E063
S11303707DDF80910F0191DF8AC082E380930F01BA
S113038081E074DF80910F0188DF81C083E3809373
S11303900F0181E06BDF80910F017FDF78C084E380
S11303A080930F0181E062DF80910F0176DF6FC0DF
S11303B085E380930F0181E059DF80910F016DDFA8
S11303C066C086E380930F0181E050DF80910F01C6
S11303D064DF5DC087E380930F0181E047DF809194
S11303E00F015BDF54C088E380930F0181E03EDF9F
S11303F080910F0152DF4BC089E380930F0181E0AC
S113040035DF80910F0149DF42C081E480930F0101
S113041081E02CDF80910F0140DF39C082E48093BA
S11304200F0181E023DF80910F0137DF30C083E4C7
S113043080930F0181E01ADF80910F012EDF27C026
S113044084E480930F0181E011DF80910F0125DFA7
S11304501EC08AE280930F0181E008DF80910F01C2
S11304601CDF15C010920F0181E000DF80910F01A5
S113047014DF0DC083E280930F0181E0F7DE8091E9
S11304800F010BDF04C08BE180930F0105C0809145
S11304900F018B3109F085B9CE01DF91CF91089519
S11304A08FEF81B912B884B915B890EF97B99FE06E
S11304B098B98AB91BB8E4E0F1E0108285E090E0D5
S11304C0A0E0B0E081839283A383B4838583968381
S11304D0A783B08784EA91E09287818765E070E022
S11304E080E090E036DE46DEC9DEC4E0D1E04D8136
S11304F05E816F81788589819A81AB81BC8148173F
S113050059076A077B0760F08881E985FA85082E18
S1130510000C990B099588831D821E821F82188600
S11305208D819E81AF81B8850196A11DB11D8D83FA
S11305309E83AF83B887809114018823E1F31092DE
S11305401401D5CFEE0FFF1F0024001C0BBE079033
S10D0550F691E02D0994F894FFCF12
S107055A0100000098
S9030000FC
